:020000040000FA
:10000000B8050020CD010000D101000079010000F9
:1000100000000000000000000000000000000000E0
:10002000000000000000000000000000D5010000FA
:100030000000000000000000D7010000D90100000E
:10004000DB010000DB010000DB010000DB01000040
:10005000DB010000DB010000DB010000DB01000030
:10006000DB010000DB010000DB010000DB01000020
:100070004D510000DB010000DB010000DB0100004E
:10008000DB010000DB010000DB010000DB01000000
:10009000DB010000DB010000DB010000DB010000F0
:1000A000DB010000DB010000DB010000DB010000E0
:1000B000DB010000DB010000DB010000DB010000D0
:1000C00000F002F800F048F80CA030C808382418F6
:1000D0002D18A246671EAB4654465D46AC4201D180
:1000E00000F03AF87E460F3E0FCCB646012633426A
:1000F00000D0FB1AA246AB46334318475C540000BD
:100100007C540000103A02D378C878C1FAD852075C
:1001100001D330C830C101D504680C6070470000BD
:100120000023002400250026103A01D378C1FBD813
:10013000520700D330C100D50B60704710B5782945
:1001400002D100F067F810BD002010BD1FB500F00F
:100150002BF91FBD10B510BD00F062FA1146FFF774
:10016000F5FF05F039F900F07AFA03B4FFF7F2FF72
:1001700003BC00F081FA000004207146084202D05E
:10018000EFF3098001E0EFF308807146004A104761
:100190001919000030B40C490C684A6823681068CB
:1001A000C0181060241D121D8C4207D28A4208D24A
:1001B0000C604A6030BC4000400870470C00DC3CDA
:1001C000F6E70A00DC3AF3E74C0300200648004754
:1001D000FEE7FEE7FEE7FEE7FEE7FEE70348044929
:1001E000024A044B70470000C1000000B803002021
:1001F000B8050020B80300200FB4054910B503AAC4
:10020000029800F0E1F910BC08BC04B018470000E7
:100210003000002070B504460D4621461068C046E7
:10022000C0462188090502D50F4A7A4402E00E4AE9
:100230007A440E3223460021243305E006070009E4
:10024000360F965D5E54491C0028F7D120780023B4
:10025000000705D5702D03D0002901D002231132EB
:10026000204600F059F970BD00530000F3B5044674
:10027000002081B020622046E168884700287AD0BB
:10028000252802D06268A16871E0E1682046002557
:10029000884706460020E0610746A0612A2E0AD062
:1002A000304605F088F8002827D0B8000019303E05
:1002B0000090866119E00298BA00121902C8916193
:1002C00002902046E1688847012F064617D1E06971
:1002D00000281FDA202085431CE000980A2180694D
:1002E000484300998019303888612046E168884782
:1002F000064605F060F80028EFD1012F0AD02E2E17
:1003000008D12046E16888470646202005437F1C27
:10031000022FC3DBA069002803DA4042A06101205C
:100320000543E80701D010208543002E23D0304636
:100330004138192803D80120C00205432036204641
:1003400025603146029A1546FFF7F8FE00280BD0CB
:10035000012806D0ED1DE808C000083002908AE7A9
:1003600009E02D1D029586E762683046A168904736
:10037000206A401C7EE7206AFEBD00000B4A30B5B3
:1003800011460B4C60310B46DC3B0CC1372106E0BB
:10039000020C8D0012185A51064A504300190A46A1
:1003A000491E002AF4DC30BD0120E7E7EC02002002
:1003B000E119D666CD0D0100002203098B422CD332
:1003C000030A8B4211D300239C464EE003460B43A5
:1003D0003CD4002243088B4231D303098B421CD307
:1003E000030A8B4201D394463FE0C3098B4201D3F9
:1003F000CB01C01A524183098B4201D38B01C01A31
:10040000524143098B4201D34B01C01A52410309A7
:100410008B4201D30B01C01A5241C3088B4201D356
:10042000CB00C01A524183088B4201D38B00C01A03
:10043000524143088B4201D34B00C01A5241411A2A
:1004400000D201465241104670475DE0CA0F00D00D
:100450004942031000D34042534000229C46030906
:100460008B422DD3030A8B4212D3FC22890112BA8C
:10047000030A8B420CD3890192118B4208D3890164
:1004800092118B4204D389013AD0921100E089097C
:10049000C3098B4201D3CB01C01A524183098B425D
:1004A00001D38B01C01A524143098B4201D34B0146
:1004B000C01A524103098B4201D30B01C01A5241A9
:1004C000C3088B4201D3CB00C01A524183088B4230
:1004D00001D38B00C01A5241D9D243088B4201D3B9
:1004E0004B00C01A5241411A00D2014663465241A4
:1004F0005B10104601D34042002B00D549427047A3
:1005000063465B1000D3404201B50020C046C046A0
:1005100002BD704770477047FFB504460D4681B075
:10052000243000902168880604D51022E0699143A8
:10053000216000E00120A84201DD471B00E0002708
:100540000498A1697A191018081AA0612078C006C9
:1005500002D42046C046C046002608E003986268E0
:10056000A168805D9047206A401C761C2062049838
:100570008642F3DB2078C0060AD52046C046C04636
:1005800006E06268A16830209047206A401C206223
:1005900038467F1E0028F4DC07E000986268A168F6
:1005A000405D9047206A401C206228466D1E00284E
:1005B000F3DC2046C046C0462078000602D5022063
:1005C00005B0F0BD0120FBE7084B70B50D467B443C
:1005D00000F013F80446284604F0F4FE002802D088
:1005E0000020C04370BD204670BD0000F94D0000E2
:1005F00001694A1C02610878704700B58FB002910A
:100600000021059105490193794403911146049015
:100610006846FFF72BFE0FB000BD0000E5FFFFFFAF
:10062000754600F025F8AE46050069465346C008F9
:10063000C000854618B020B5FFF7D0FD60BC00278C
:100640004908B6460026C0C5C0C5C0C5C0C5C0C59E
:10065000C0C5C0C5C0C5403D49008D46704710B5F6
:100660000446C046C0462046FFF77FFD10BD00008F
:10067000004870475403002001491820ABBEFEE734
:10068000260002007047000030B5064C00235D00D4
:100690005D1960552D195B1C6970DBB2AA70502B77
:1006A000F5D330BD6E01002000B50548C1780129A1
:1006B00005D10021C1700A460846FFF7E5FF00BDDD
:1006C00006000020FEB56749674DC878674C0128D1
:1006D00006D0674801780A294FD2491C0170FEBD37
:1006E0000020C87020706348634F00780090207825
:1006F00000990646FFF760FE604801704800081840
:1007000071003A5C71186A54C019427849194A70EC
:1007100080788870761CF0B220705028E7D30026CD
:10072000574D584F26702888113080B22880FFF727
:1007300025FEFFF72FFDC0B20A21FFF73DFE524A0A
:1007400020780A311154514A01211154288811305E
:1007500080B22880FFF712FEFFF71CFDC0B21E21F9
:10076000FFF72AFE20780A313954401CC0B22070AD
:100770005028D8D33E480670FEBD00210170434F7B
:1007800021702678B85D00282FD0012844D0394840
:1007900001783046FFF710FE38480170480008180D
:1007A00035490090085C3221FFF706FE81004118B0
:1007B00070003018019029542F490098401800907B
:1007C00040783221FFF7F8FD810041180198401967
:1007D00001904170009832218078FFF7EDFD810093
:1007E000411801988170002014E0224801783046B9
:1007F000FFF7E2FD2148204B0170480009185A5CC0
:10080000700030182A54C9184A7840194270897803
:1008100081700120B8551DE01A481B4A815D491CB2
:10082000C9B28155925D914214D90021144A815573
:100830001088411C1180FFF7A1FDFFF7ABFCC0B28F
:100840000A21FFF7B9FD104822780A318154B85CBB
:10085000401CB8542078401CC0B22070502890D35F
:10086000FEBD0000060000206E0100200C000020EC
:10087000160000200A00002044000020150000207F
:100880000400002074000020D8000020A6000020F2
:10089000F0B51848184BC7781849194D0024194E5F
:1008A000194A012F05D02F78082F0ED27F1C2F70E8
:1008B000F0BDC4701C700C701470002211461046FC
:1008C000FFF7E2FE2C703470F0BD2C703578EF0726
:1008D00000D1FF2414706D1CECB23470052C03D9C8
:1008E000447804700124C470127809781878FFF7EE
:1008F000CBFEF0BD060000200E0000200F000020FF
:1009000016000020A6000020100000200248016A06
:10091000C20111430162704700020050F3B58BB071
:100920000C46FFF7F3FF0B9800287448016813D0BA
:10093000042211430160102000F0F0F90120C004EE
:1009400009906F480090042008906E486E49201866
:1009500088420ED800251DE089088900491C0160E5
:10096000012000F0DBF90020099068480090022087
:10097000EAE76748664920184942884202D80125BB
:10098000640007E0634863492018494288427DD2E9
:100990000325A4000026F643089F22E0394600986C
:1009A000FFF70AFD5C49844641185C48814217D232
:1009B000554B02225B1C534861465143401C0818AA
:1009C000984209D8A14201D9081B00E0601AB04240
:1009D00002D2060004920CD05148521C8242EAD93D
:1009E0007F1C212FDAD900200696C0430190089E73
:1009F00054E00999A803084301217A028902511A97
:100A000008430499891E08433C490862042000F009
:100A100085F9691C79430098FFF7CEFC0499484397
:100A20000DB0F0BD31460098FFF7C6FC3A494218B8
:100A30003A498A4231D20221324B02464A435B1C78
:100A4000D7185B429F4224D8A24201D9121B00E072
:100A5000A21A019B9A421CD20192069B0F469A420F
:100A600017D10999A8030843012172028902511A7A
:100A70000843B91E084321490862042000F04EF9DA
:100A8000691C71430098FFF797FC00E008E0784389
:100A9000C6E7234A491C9142CED9761C212EC1D9E2
:100AA0000B9800280FD01F4914480162042000F061
:100AB00035F91DA0006803901048016A0013014237
:100AC00003D00020ACE71949EEE7080301D50C4834
:100AD00000E00E488A03A3D40A04920F03AB9B5C88
:100AE000CA058904D20DC90E891C8008921C59437D
:100AF0005043FFF761FC800092E7000000020050C5
:100B000000805101FF1E0AFAFFE0F505001BB70047
:100B1000800F05FDC08782FEFF95E7FFBF77CC0001
:100B200001020000184408000102020416400000FF
:100B3000044982070A6801D09208920002430A60C1
:100B4000704700000002005008B511A00068009036
:100B50001048016A0013014201D0002008BD0803BB
:100B600001D50D4800E00D488A03F7D40A04920F1E
:100B70006B469B5CCA058904D20DC90E891C80088E
:100B8000921C59435043FFF717FC800008BD00003A
:100B9000010202040002005000805101001BB70056
:100BA00070B501F001FC2D4841682D4A11404160AB
:100BB00041680325294341600120FFF7B9FF012067
:100BC00000F0ACF800062749000E087009D1042097
:100BD000FFF7AEFF102000F0A1F80021072000F081
:100BE0008BF8214800F046F8204C08262660304655
:100BF00000F094F80120A060606928436061A1685A
:100C0000E0018143A160A1680143A1606069032103
:100C100009068843606105200007416B144A1140B2
:100C20004163416B0322920211434163A068042196
:100C30000843A06060690721090288436061A068D9
:100C40003043A060606909018843606104F0DAF90B
:100C500002490020C031086070BD00004000005013
:100C6000FCFCFFFF23000020006CDC0200020050AF
:100C7000F3F3FFF3F8B51E4C0546E66810201D4956
:100C8000064048108D4201D90D4602E0854200D24F
:100C900005462068042738432060102000F03EF805
:100CA0002069072108432061A06900090001A061B3
:100CB00020688007800F01280ED069007804FFF7B4
:100CC0002DFEE6680546102006400121022000F0B6
:100CD00013F8002E06D008E069000020FFF71EFE82
:100CE0000546F2E72068B84320606808F8BD0000B8
:100CF0000002005080F0FA0210B5074A93691B0900
:100D00001B010B4393611169C908C90001431161BB
:100D100004F078F910BD00000002005010B507493A
:100D2000074A05E00B46491E002B01DC002010BDE0
:100D3000D4680346A343F5D1012010BD80F52000FF
:100D400000020050FCB54B4E4B4DF77800244B4B46
:100D50004B484C494C4A012F2DD02E78761CF6B2C8
:100D60002E70052E42D32C706E78761CF6B26E7003
:100D70001E2E0ED36C70AE78761C3606360EAE7014
:100D800007D0AC701D786D1CEDB21D70052D00D91B
:100D90001C701F783C4B1B780193DB1CDBB200936B
:100DA000374B1E78374B1D783B0004F0F7FA0620CE
:100DB000252B31373D42F4702C706C70AC701C7078
:100DC00005255D7003259D70304B314E1C701D78DC
:100DD00074556D1CEDB21D70502DF8D304700C705D
:100DE0001470002211461046FFF74EFCFCBD761D24
:100DF00014700670ED1F0FE00C70019B9B1F1370A9
:100E000009360FE00470ED1D0D70019B1B1F0FE0F4
:100E1000761F1470067008350D700AE00C70009B88
:100E20001370F61F067004E00470083D0D70009BFF
:100E30001370164B4F241C70164B144C247865000D
:100E40006619A446F5182C46203CA77F6F70677F73
:100E50009F55E47FAC706446641E24060B4D240E3F
:100E60002C70EAD100781870087858701078987053
:100E7000FCBD00000600002074000020A600002039
:100E80000E0000200F000020100000200C000020A9
:100E9000D80000206E010020F8B50146FA48002471
:100EA0000078FA26F94D27460A2878D9F84A0C2006
:100EB00010700B0004F072FA07154C7DA2D6FF05E6
:100EC0001400F44861006118425C6A540A18491918
:100ED00053784B70641C9278E4B28A70102CF1D372
:100EE000F8BD05212046FFF767FA002908D001293F
:100EF0000CD0022910D0032916D004291CD022E0DE
:100F0000600020182F544019467013E0600020182C
:100F10002E54401947700DE06100C82061186854D4
:100F200049194E7088700EE0600020182F549621E9
:100F300040194170877006E06000962120182954FE
:100F4000401946708670641CE4B2102CC9D3F8BDF9
:100F500007212046FFF730FA00290CD0012912D0D2
:100F6000022908D003291BD004290CD0052902D05E
:100F7000062908D00EE0600020182E5432214019B6
:100F80004170642105E0600020182E54401947701C
:100F900032218170641CE4B2102CD9D3F8BDC3E0B7
:100FA0006000642120182954C821401941708770BD
:100FB000F0E7A00709D0A007800F01280CD0022875
:100FC00010D0E043800707D013E0600020182E54B3
:100FD0004019477087700CE0600020182F544019AA
:100FE000477005E06000962120182954401946708A
:100FF0008670641CE4B2102CDBD3CFE705212046B9
:10100000FFF7DAF9002908D001290ED0022911D002
:10101000032917D0042920D01AE0600020182F548B
:10102000401946703221817012E0600020182E5461
:10103000322104E06000642120182954C82140199D
:10104000417004E0600020182E54401947708770EA
:10105000641CE4B2102CD1D3A0E7600020182E54F9
:101060009621ECE7A00712D0A007800F012815D029
:1010700002281BD06000642120182954C82140197F
:1010800041708770641CE4B2102CEBD386E76000DB
:1010900020182F5440194670F3E70CE06000201828
:1010A0002F544019467032218170EBE76000201800
:1010B0002F549621E3E709212046FFF77DF9002907
:1010C00010D0012913D0022929D0032914D00429D2
:1010D0000DD005291CD0062909D007291FD00829C1
:1010E0000AD010E0600020182E54322101E0642163
:1010F00003E04019417010E03221600020182954AB
:10110000401947708670641CE4B2102CD3D345E7B5
:10111000600020182F54401946708770F3E7600074
:1011200020182F549621E4E710290BD24800091803
:101130005848425C2A700818417869708078A87015
:10114000012175E01039042003220B0004F026F978
:101150000D091622333E497C87A4B1EBFBF9080048
:101160001CE72F7032206E706421A870E970C823CC
:101170002B716F71AE71E871297224E02F706E705F
:10118000AF70EE702F716F716421A971C821E97180
:101190002F72E1E032212E706970AF70EE709622EE
:1011A0002A716F71AE71E9712F726E72AF72EE7249
:1011B00037490870F2E6962028706E70AE70EF70B6
:1011C0002E716E7147E032480270E7E62E706F7044
:1011D000AF70EF702E716F71C820A871EE71287218
:1011E000F1E707212046FFF7E7F800290CD0012995
:1011F00012D0022908D003291DD004290CD00529BA
:1012000002D0062908D00EE0600020182E543221AA
:1012100040194170642105E0600020182E544019E7
:10122000477032218170641CE4B2102CD9D307219D
:1012300017480170B2E66000642120182954C821C3
:10124000401941708770EEE72E706F70AF70C82044
:10125000E8702E716871AF71EF712E72B3E72F7065
:101260006E703220A870EE7028716F71AE71EF71E0
:101270002F7264206872C820A872EF7296202E73B5
:101280006873AF730521D3E70600002044000020F7
:101290000A000020F85400002F706E70AF70EF70DD
:1012A0002E71322068716420A871C820E8712F72F5
:1012B00089E709212046FFF77FF8002910D001298E
:1012C00013D002292AD0032914D004290DD00529CE
:1012D0001DD0062909D0072920D008290AD010E0FE
:1012E000600020182E54322101E0642103E04019EF
:1012F000417011E0322160002018295440194770D4
:101300008670641CE4B2102CD3D3092050E760002F
:1013100020182F54401946708770F2E7600020189B
:101320002F549621E3E72E706F70AF70EE7032216C
:1013300029716F71AE719621E9712F726E72AE7262
:101340000DE00EE0FFE72F706F70AE70EF702E7142
:101350006F71AF71EE712E726E723221A972EF72DF
:1013600026E7084861006118425C6A540A18491966
:1013700053784B70641C9278E4B28A700C2CF1D3D1
:101380000C2015E7F8540000F0B52D482D4A84795B
:101390000123002C05D04679851E0021012E0BD09B
:1013A00016E028482038016A890104D5016A8402C0
:1013B000A14301629360F0BD417141708170C170C1
:1013C0000171298016680127BF073E4316609360AC
:1013D0009668F607F60FEED093602A881A4E521CD4
:1013E00092B22A80B24201D32980F0BD8278521C89
:1013F000D2B282703C2A0ED38170C278521CD2B213
:10140000C2703C2A07D3C1700279521CD2B2027159
:10141000182A00D301714278002AE6D18278002A86
:10142000E3D1C278002AE0D10279002A05D0A24295
:10143000DBD102220270C171F0BD0370C371F0BD37
:101440002600002020000140983A000010B500F06E
:101450009BFB0B490B78002B0ED00022012409487E
:10146000012B02D0022B04D006E00A7041780170F3
:1014700001E00A700270C47003F0D0FE10BD0000DD
:1014800026000020060000200A492222CA60486087
:10149000012008610869C007FCD10868400606D52C
:1014A00008684022104308600020C04370470020B5
:1014B0007047000000C0005002480168012211433B
:1014C0000160704700C0005005490022CA604860B2
:1014D000012008610869C007FCD1886870470000D6
:1014E00000C00050054A2123D36050609160012064
:1014F00010611069C007FCD17047000000C00050A7
:1015000010B50124240500F041FFFFF7D5FF154970
:1015100008682022104308602046FFF7D5FF124CD0
:1015200060701248FFF7D0FFA0701048001DFFF751
:10153000CBFF0F4988710D480830FFF7C5FF0D49F3
:1015400008700A480C30FFF7BFFF0B4908700748C6
:101550001030FFF7B9FF09490870094900200860F9
:1015600010BD000000C00050060000200400100064
:1015700026000020020000200100002000000020C2
:101580000001005070B51B48012401782405012991
:101590002FD10025057000F0F9FEFFF78DFF1648EA
:1015A00001682022114301602046FFF76DFF134EB2
:1015B00020467178FFF796FF201DB178FFF792FF64
:1015C00010490F488979FFF78DFF0D480E49001D1E
:1015D0000978FFF787FF0A480C4908300978FFF7B8
:1015E00081FF07480A490C300978FFF77BFF09485B
:1015F000056070BD1F00002000C0005006000020E4
:101600000800100026000020020000200100002039
:101610000000002000010050F0B585480025C17889
:10162000844E854C89B001293FD00020207083482A
:10163000017820780546FEF7BFFE8148814E017093
:1016400048000F18F05D32210090FEF7B5FE7E498C
:10165000BE1908700590707832210490FEF7ACFE38
:101660007A4908700790B07832210390FEF7A4FE03
:101670007749704E08700746705D00283DD00128FC
:101680007ED002287348415D74D0491CC9B2724AA9
:101690004155525D91426ED90021415568006F4914
:1016A00028180A5C002A67D192E00022C570114612
:1016B0001046FEF7E9FF6A4F25703888411C3980D3
:1016C000FEF75CFE388811303880FEF763FDC0B24B
:1016D0001E21FEF771FE604A207811545D49355491
:1016E0000D54401CC0B220705028E6D35D48322112
:1016F00001705D48057009B0F0BD5648564A415D1D
:10170000491CC9B24155525D914234D9002141551D
:1017100005210098FEF750FE0246680029184F4840
:101720000291405C0090824214D805210498FEF793
:1017300043FE01464948029A1018049040788142BD
:1017400008D805210398FEF737FE014604988078F3
:10175000814212D9059A009940488A180299425448
:101760000299081842780799511841708178C9196F
:1017700041E005E010E02AE032E0012070554FE042
:10178000680029183548009A42540818049A427093
:10179000039981700220F1E7491CC9B2314A4155D1
:1017A000127891423CD900214155032070552C4DAF
:1017B0002888FEF7E3FD288811302880FEF7EAFC30
:1017C000C0B20A21FEF7F8FD23482278815427E0B1
:1017D000224943185978002902D19B78002B0CD05C
:1017E000059B1E49D21A0A54401842780799511A8B
:1017F00041708178C91B817012E000277755184D20
:101800002888FEF7BBFD288811302880FEF7C2FC2F
:10181000C0B21E21FEF7D0FD0F4A20781154375474
:101820002078401CC0B22070502800D2FFE662E74A
:1018300006000020A60000200C0000200A00002066
:10184000150000204400002012000020130000209A
:101850001400002074000020D80000206E01002039
:1018600004000020160000200D000020F0B5002329
:101870000125944603272A469A400A4209D0066861
:101880005C003A46A2409643224664469440264372
:1018900006605B1C082BEED3F0BD0000F0B51848C5
:1018A000184BC778184A194D0024194E1949012FB1
:1018B00005D02F78082F0ED27F1C2F70F0BDC4707A
:1018C0001C700C701470002211461046FEF7DCFEEE
:1018D0002C703470F0BD2C703578EF0700D1FF24E8
:1018E0000C706D1CECB23470052C03D94478047074
:1018F0000124C470127809781878FEF7C5FEF0BD8F
:10190000060000200E00002010000020160000201D
:10191000A60000200F000020044603A0FEF76CFC88
:10192000204603F095FDFEE7496E20486172642071
:101930004661756C742048616E646C65720A0000C3
:10194000F8B5804A8048D378804D81490026814C83
:10195000814F012B05D00278082A36D2521C027022
:10196000F8BDD6707D4A167006707D4806707D48B9
:1019700006707D4806700E70267020783E54401C1C
:10198000C0B220705028F8D326702078410041184A
:101990006E544919401C4E70C0B28E702070502891
:1019A000F3D3724C32212078FEF706FD704908709F
:1019B00060783221FEF700FD6E490870A078322170
:1019C000FEF7FAFC6C490870F8BD06706B480378A6
:1019D0005F480078421CD2B2012B2CD0502873D221
:1019E00067490888113080B20880FEF7C7FCFEF70F
:1019F000D1FBC0B25021FEF7DFFC62480170785C79
:101A00000128EDD05F480121007839545549430041
:101A10000978C0184A008918544A525C2A54534A1B
:101A2000401989184A78427089788170484801784D
:101A3000491C01706EE0494B1B78002B03D02878BD
:101A4000002848D141E050282AD24D490888113059
:101A500080B20880FEF792FCFEF79CFBC0B25021DA
:101A6000FEF7AAFC47480170785C0128EDD0454894
:101A70000121007839543B4943000A78C0185100CD
:101A800051183A4A525C2A54384A401989184A78FF
:101A90004270897881702E480178491C017001E0FC
:101AA0002B4802702A48017850298DD306702B48A4
:101AB0000178491C0170267020783E54401CC0B249
:101AC00020705028F8D3F8BD22E06878002802D1B1
:101AD000A878002819D02670254A26482649137868
:101AE00002780F782078410041186E5C401CF61A8D
:101AF0006E5449194E78C0B2B61A4E708E78F61BE5
:101B00008E7020705028EDD3DDE714480670DAE7B8
:101B10000F4802700E4801785029D4D3067011483E
:101B2000164A0178491CC9B201701278914200D35B
:101B30000670267020783E54401CC0B22070502899
:101B4000F8D3C0E706000020160000206E01002038
:101B50001A0000200B0000203C010020A6000020FD
:101B60000D00002015000020D800002044000020B7
:101B70001200002013000020140000200A000020A2
:101B8000040000200C00002070B51E491E4C0A788D
:101B9000267801250020012A07D0022A04D10870E6
:101BA000002E01D02070E57070BD0870164A0B2120
:101BB0005278164B002E10D01D70A678761CF6B207
:101BC000A670062E0AD9521CD2B2A0706270227082
:101BD0000D2A03D96170207010E0227060780B2804
:101BE00006D00C2804D00D2802D0617021701D7021
:101BF000A078062802D90620A0701D70A078FFF7F3
:101C00004BF9D0E722000020060000201F00002032
:101C10000E48436B0E4801220178002B02D00029A8
:101C20000CD00FE0002908D14178491CC9B241709D
:101C3000462902D90270022181707047417801293A
:101C400000D982700021417001707047004200503D
:101C50002000002010B52C48018811310180811C22
:101C60000878082835D007DC030003F097FB081A32
:101C70001D202326292C2F170D2839D008DC0928F0
:101C80002AD00A282BD00B282CD00C2806D12CE0E7
:101C9000FB2830D0FD2831D0FF2832D00A20087030
:101CA00010BDFEF701FD10BD03F078F910BDFEF781
:101CB00009FD10BD03F092F810BDFFF741FE10BD05
:101CC00000F080FB10BD00F099FA10BD00F0E2F9C1
:101CD00010BDFFF7A1FC10BD00F0FEF810BDFFF72E
:101CE00031F810BD00F05AFC10BD01F025F910BD0F
:101CF00002F07AF810BDFEF7CBFD10BDFFF7CEFD68
:101D000010BD00F089F910BD04000020F0B50021DD
:101D10003D480C464A008B183C4A9E1800233278F6
:101D200055080022761CEF092DD00127076100BF5E
:101D300000BF00BF00BF00BF00BF00BF00BF00BFAB
:101D400000BF00BF00BF00BF00BF00BF00BF00BF9B
:101D500000BF00BF00BF00BF00BF00BF00BF00BF8B
:101D600000BF00BF00BF00BF00BF00BF00BF00BF7B
:101D700000BF00BF00BF00BF00BF00BF00BF00BF6B
:101D800000BF046120E00127076100BF00BF00BF62
:101D900000BF00BF00BF046100BF00BF00BF00BFA5
:101DA00000BF00BF00BF00BF00BF00BF00BF00BF3B
:101DB00000BF00BF00BF00BF00BF00BF00BF00BF2B
:101DC00000BF00BF00BF00BF00BF00BF00BF00BF1B
:101DD00000BF00BF00BF00BF00BF00BF00BF00BF0B
:101DE00000BF00BF00BF00BF6D06521C2D0ED2B257
:101DF000082A98D35B1CDBB2032B90D3491C89B211
:101E0000502987D3F0BD0000404200506E010020F1
:101E100070B5FEF7C5FE00F0C7FA03212548090298
:101E200001600168022211430160012444600168DD
:101E30008022114301602048002505602246402190
:101E40001E48FFF713FD1D48032220214030FFF7F5
:101E50000DFD1A48012210218030FFF707FD1848B8
:101E60000561174840388461164C1E21204603F056
:101E7000C9F96068102108436060080212490860CF
:101E80004B21C901204603F07DF9104C012132227B
:101E9000C906204603F032F92168A00301432160FE
:101EA0000B4921620B496162084920310A680243EB
:101EB0000A6070BD0040004000010050004000502A
:101EC000404200500000054000E100E000000140F9
:101ED000FF0000081BB70000F0B5484D484CEE78F5
:101EE00000234848484A494986B0012E06D0257843
:101EF000052D13D26D1C257006B0F0BD444EEB705D
:101F000035786D1C357003704248FF2505700B70E5
:101F1000137000222370114610466BE000232370DB
:101F20003A4B07781E78731CDBB20593394B1D784A
:101F30006B1EDBB20493344B1C78631CDBB203933F
:101F4000731EDBB202936B1CDBB20193631EDBB228
:101F500000933B0003F022FA0B070D141A212930DD
:101F600034393D414600FF2E01D2059811E001238E
:101F70003BE0284B002D01D0049812E0022334E00E
:101F8000FF2C01D2039813E003232EE0002E02D091
:101F9000029808702AE0042327E01E4BFF2D02D28E
:101FA0000198187022E005231FE0002C02D0009851
:101FB00010701BE0062318E0FF2CE3D3072314E086
:101FC000144B002DD8D108230FE0FF2ECDD30923C9
:101FD0000BE0002CEBD10A2307E00E4BFF2DDFD3E3
:101FE0000B2302E0002ED3D100230370094812789E
:101FF00009780078FEF748FB7EE700000600002025
:1020000016000020A6000020100000200F00002075
:10201000740000200E000020F0B518481849C77859
:10202000184A194D0024194E194B012F05D02F784D
:10203000082F0ED27F1C2F70F0BDC4701C700C7066
:102040001470002211461046FEF71EFB2C703470EF
:10205000F0BD2C703578EF0700D1FF241C706D1C8B
:10206000ECB23470052C03D9447804700124C47098
:10207000127809781878FEF707FBF0BD06000020FB
:102080000F0000201000002016000020A6000020F5
:102090000E000020F8B54A484A4AC3784A4D00214C
:1020A0004A4C012B06D04A480378082B2FD25B1CE0
:1020B0000370F8BDC170474B474E484F21702078E0
:1020C0001954115431543954401CC0B22070502856
:1020D000F5D33F48434C0170414829700170207886
:1020E0003221FEF769F94049087060783221FEF725
:1020F00063F93E490870A0783221FEF75DF93C494A
:102100000022087011461046FEF7BEFAF8BD0170B5
:102110002D4813780078002B02D0012B2ED106E039
:10212000322801D2401D05E00120107026E005286C
:1021300002D9401F287021E02948117002782D4BE8
:10214000521CD2B202701B789A4200D30170007800
:10215000244E41004718F05D3221FEF72DF9224947
:10216000BE19087070783221FEF726F91F490870F1
:10217000B0783221FEF720F91D4908704F202070F9
:102180001D48237859005E183218114620394F7FB8
:1021900087558E7F5670C97F91705B1E1906090E98
:1021A0002170EED110490A7829784A4302700F4A0B
:1021B00012784A4342700E4A12784A438270F8BD40
:1021C00006000020A6000020110000200C000020C6
:1021D0001600002074000020D80000200A01002012
:1021E00015000020440000201200002013000020F1
:1021F000140000200A0000206E010020FEB55548A2
:10220000554AC17855481778554C867845780278F4
:10221000012906D053480178282951D2491C017060
:10222000FEBD4C490023CB7032211046FEF7C4F8A6
:102230004D490870029032212846FEF7BDF801464C
:102240004A480170019132213046FEF7B5F84849FD
:10225000484D0870009000202070C0B239460646F4
:10226000FEF7AAF84448012F017001D1F00719D0F8
:1022700048000A1839487100835C71186B541018B3
:10228000427849194A7080788870761CF0B22070C4
:102290005028E2D33349002008703849087048704C
:1022A0008870FEBD02980A21484371007118685475
:1022B00001980A2250434919487000985043E3E7B7
:1022C00000212F4B0170012F09D02A48E030417BBB
:1022D00019702C49827B0A70C17B2B481BE0274870
:1022E0000178002906D027491A700D7026490E7012
:1022F000002110E01C4914220978514319701B4930
:10230000097851431F4A1170194914220978514321
:102310001D4A1170012101704F2020701548257849
:1023200069006E183218114620394F7F87558E7F0D
:102330005670C97F91706D1E2906090E2170EED16D
:10234000197801700F49097841700F490978817037
:10235000FEBD0000060000200A000020440000200E
:102360000C000020160000201200002013000020A6
:10237000140000206E01002015000020A60000209F
:102380000E0000200F0000201000002010B5592181
:102390000448162288230160026003600468002C50
:1023A000F9D010BD0001005010B559210448162283
:1023B00088230160026003600468002CF9D010BD1E
:1023C00000010050F8B55D495D4DCA785D4E0020B2
:1023D000012A05D02978052934D2491C2970F8BD75
:1023E000C870594B594918701A7854001419085577
:1023F0006418521C6070D2B2A0701A70502AF3D3C5
:102400005349594C0870534930700870524928702C
:102410000870524908705249087052490870207873
:102420003221FDF7C9FF5149087060783221FDF76C
:10243000C3FF4F490870A0783221FDF7BDFF4D4919
:102440000870F8BD002028703E4845490478474888
:102450000A78077846484349067846483D4B057850
:102460003E48097800781B78002C04D0012C1FD03E
:10247000022C5AD128E05C001C193B4B1B5D8342A7
:1024800007D8394BE3185C78944202D89B788B428A
:1024900008D9324BC019187031489219027031486E
:1024A00049191DE027480121017000202A493BE01D
:1024B00029480178491CC9B20170322935D300215D
:1024C0000170204802210BE0044614430C4309D05C
:1024D000224BC01B18702248921B02702148491BD6
:1024E000017022E01748002101705B1C1948DAB224
:1024F000214B02701B789A4200D3017000781A4C6D
:1025000041004518605D3221FDF756FF17492C192F
:10251000087060783221FDF74FFF15490870A078E8
:102520003221FDF749FF134908700E4802780C4824
:1025300001780A480078FEF7A7F8F8BD06000020E9
:1025400016000020A60000200C0000206E010020D4
:102550007400002015000020D80000200E0000208C
:102560000F00002010000020440000201200002076
:1025700013000020140000200A00002006498A6988
:102580001202FCD408600A2804D188690002FCD435
:102590000D200860704700000000054070B5234919
:1025A0000025CB78224A2348012B13D00188012330
:1025B000491C89B2204C0180012914D00E46FF3EEF
:1025C000CD3E05D005267602B1420ED1022010E0A4
:1025D00013700FE0CD700580157000221146104673
:1025E000FEF752F870BD157004E0144EB14203D1ED
:1025F00003201070237003E0114B994200D1058035
:102600001078002808D0012809D002280AD0032811
:10261000E8D100F001FB70BD00F014F870BD00F0CF
:10262000BFF870BD00F02EFA70BD0000060000205B
:10263000180000201C00002019000020840D00005C
:1026400094110000FEB54948494D01780024494ED7
:10265000012905D02878022817D2401C2870FEBD19
:102660000022047011461046FEF70EF842482C7006
:102670000470424804704248047042480470424862
:102680000470424834700470FEBD00202870394840
:1026900001783C480078401CC4B2374800290778CC
:1026A00036480678364805783748007802D0012940
:1026B00053D133E04100401835490090085C19219E
:1026C000FDF77AFE014633480170019130490098C8
:1026D0004018029040781921FDF76EFE01462E4801
:1026E00001700091029819218078FDF765FE2B4951
:1026F000214A0870019928187918117000991F4A09
:10270000711811701E49192C08701E48047024D3CA
:10271000002101701748012101701EE01D4A164971
:102720001278BA1A0A701C4A14491278B21A0A703E
:102730001A4A13491278AA1A0A701249192C0C70F5
:102740000BD300220A700B49401C0A700E4AC0B21B
:102750001070022801D90220087009480278074841
:10276000017805480078FDF78FFFFEBD19000020B5
:10277000160000201E0000200E0000200F00002088
:10278000100000200B000020150000201A0000207F
:10279000440000201200002013000020140000203C
:1027A000F0B5A848A84C017885B0012920D0277839
:1027B000A6487A1C0078D5B2401CA64AC6B2A448E6
:1027C000137800785A1CD2B20192A34A411C1278A5
:1027D00000925A009A18A14B0292D218C9B23B003B
:1027E00002F0DCFD09205E9ED69ED69ED6FDFC0042
:1027F000002505702A4629462846FDF745FF9348DF
:10280000984A057096482570057001785554491C02
:10281000C9B201703229F8D3934805708C4805700D
:1028200005B0F0BD894A052E1670F9D30023884DF6
:10283000137050282AD28B4F8C4E8D490888113046
:1028400080B20880FDF79AFDFDF7A4FCC0B25021CC
:10285000FDF7B2FD3170785C0128EED0C9B20120DD
:1028600078547C4A88081070420082187B484B00DC
:10287000CB18865C7F491018CE54427859184A709C
:10288000807888702878401C287000E029702878AB
:102890005028C5D320787449401C2070002075E072
:1028A0006A480A2E0670BBD3002101707148724A33
:1028B000E030417B11700191704A817B1170009171
:1028C000C17B6F488C46017068484F210170694890
:1028D00066490B7859005E183218114620394F7F2F
:1028E00087558E7F5670C97F91705B1E19065F4AAF
:1028F000090E1170ECD10199017000994170614687
:10290000817059480178491CC9B20170502987D398
:10291000002101704E48257001704E4801707FE71C
:102920004A4B142E1E70FAD300261E700A285DD260
:102930004E4B1E704D4B0A261B789C4673431B184A
:102940000393502B0CD2454B029E9F5D039B5E0070
:102950009E19484B9F555778F3185F7096789E7074
:1029600063465B1C414EDBB23370082BE2D33DE083
:10297000374908780828D2D325703648019A027062
:10298000009B9A4201D3002202700020087047E7A2
:102990002E4B142E1E70C2D300261E700A2825D27C
:1029A0002B48324E0170002030702C48029BC05CD6
:1029B00003905078029090788446304602780A233B
:1029C00053435B1A5F00DF192A4B039EFB189E7767
:1029D000029EDE77664620331E7001E02FE008E09D
:1029E000521CD2B20270082AE8D3C1E7184801701D
:1029F000BEE7164B0A2E1E7091D300221A700A28C9
:102A000015D21A4B1A701B4B184E37780A26BC4643
:102A100077433E187700F6199A55F6187270674694
:102A2000B2707F1CFEB2114F082E3E70ECD30848E6
:102A3000017001780829AAD325700270F0E6FF2002
:102A40002070EDE6190000201E0000201600002076
:102A50001A000020150000200A0000204400002079
:102A60000B0000203C010020170000200C0000207B
:102A7000040000206E0100200E0000200F00002046
:102A800010000020FEB55948594E0178594C0129D3
:102A90003FD0304605782046019500785649401CC5
:102AA000C3B256480278501CC0B28446087856001B
:102AB0009219554E00928646514952489219052D59
:102AC000237036D3082B23D3002323704F230B709E
:102AD000DDB26B00EE1834182346203B5F7F87552C
:102AE0009E7F6670DB7FA3706D1E2B061B0E0B7026
:102AF000EED1454B009C41491B5D037053784370F8
:102B00009278827060460870F44501D30020087006
:102B1000FEBD002505702A4629462846FDF7B4FD6E
:102B20003A4825700570354805703948057035708C
:102B3000FEBD082B46D30023237027230B70DDB284
:102B40002E4606235D432C182346203B9F7E475587
:102B5000DD7E65701B7FA370761E33061B0E0B7027
:102B6000EDD1294B009C254E1B5D037053784370BB
:102B70009378837000270C78062363431B185D7AD3
:102B8000DD709D7A1D71DD7A5D71641CE3B20B709E
:102B9000272BF0D31B48D178E03041731179817332
:102BA0005179C1731A480178491CC9B201700629CC
:102BB00008D3077072466046521E394630709445FD
:102BC00000DB317013480178491CC9B201706429D7
:102BD000AED3002101700198054A401CC0B21070AC
:102BE0000528A5D30A480170FEBD00001900002089
:102BF00017000020160000200A0000201500002009
:102C00000C0000206E010020440000201E00002067
:102C10001A0000201B000020FEB5B448B44D017816
:102C2000002401291AD0B348B4490378B248B44A01
:102C3000B44E2F7800780978127836780296B24E22
:102C40005B1C36780196B14E36780096DEB23B00BA
:102C500002F0A4FB052A6FADCAF96E0000220470D1
:102C600011461046FDF710FDA24819210470A8482E
:102C70000470A84804702C70A74D2878FDF79CFBC1
:102C80009D49087068781921FDF796FB9B490870EB
:102C9000A8781921FDF790FB9949087099480470AC
:102CA000994804709948CBE0924B082E1E703FD390
:102CB0001C70029E934B3018C0B21870019E924B4C
:102CC0007118C9B21970009F904BBA18D2B28C4ECD
:102CD0001A70FDF7D9FC8E480178491CC9B2017001
:102CE0000A2925D9047028788D4A401C28708B4801
:102CF000047088480178491CC9B201701278914269
:102D000000D304700078844C41004518605D19219F
:102D1000FDF752FB78492C19087060781921FDF7EE
:102D20004BFB76490870A0781921FDF745FB307000
:102D3000FEBD0301181A734BC0B218700B01591A6B
:102D4000714BC9B2197013019A1A704BD2B26B4E03
:102D50006B4F1A70FDF798FC70480178491CC9B296
:102D600001702829E4D9047028786D4A401C287025
:102D700068480178491CC9B201701278914200D3A9
:102D800004700078644C41004518605D1921FDF71E
:102D900013FB59492C19087060781921FDF70CFBB9
:102DA0003070A0781921FDF707FB3870FEBD594837
:102DB000544B017848000A185749885C187052181B
:102DC000514B51781970514B92781A70FDF75CFC99
:102DD00052480178491CC9B201705029E6D90470E3
:102DE0002878401C28707CE0424B062E1E70DDD3F4
:102DF0001C70029E434B301AC0B21870019E424BA9
:102E0000711AC9B21970009E404BB21AD2B21A7030
:102E1000FDF73AFC3E480178491CC9B201700F2900
:102E2000C4D9047029783F4A491C29703B490C7069
:102E300001785454491CC9B201703229F8D33A4878
:102E40000470FEBDFFE72B48052E0670F9D3047011
:102E500035480078502846D2344F354E38881130E6
:102E600080B23880FDF78AFAFDF794F9C0B250219C
:102E7000FDF7A2FA2B483170405C0128EED02949B9
:102E8000307801220A54410041182A484454081855
:102E90004470254984700878401C087022480078E6
:102EA0005028CED317482C70047017481A4D047060
:102EB000164804701748007841004618A85D19218B
:102EC000FDF77AFA0C497519087068781921FDF731
:102ED00073FA0A490870A8781921FDF76DFA0849B4
:102EE00008700B48ACE71049D6E700001900002035
:102EF0001E000020160000201200002013000020F9
:102F0000140000200E0000200F0000201000002000
:102F10000B00002015000020440000201B000020B2
:102F20000A0000203C0100201A00002004000020BC
:102F30000C0000206E01002070B526490025CB78DA
:102F4000254A2648012B0DD001880123491C89B24E
:102F5000234C018001290ED0CD26F600B1420CD1C0
:102F6000137019E0CD7005801570002211461046CF
:102F7000FDF78AFB70BD15700EE01A4EB14201D10B
:102F8000022008E0184EB14201D1032003E0174EA1
:102F9000B14203D104201070237003E0144B994216
:102FA00000D105801078030002F0F8F90505080B40
:102FB0000E110400DEE700F085F970BD00F01AF88C
:102FC00070BD00F0A3FA70BD00F054FC70BD00F0BD
:102FD0006FFE70BD06000020180000201C000020BD
:102FE00019000020520D00006E0F00009213000027
:102FF000581B0000F8B59F489F4C01789F4DA04F8B
:103000000026012942D02078401CC0B2207005283B
:103010007ED32670384602789A48012700789A4C69
:10302000411CC9B2002A47D0012A72D0954E5028BF
:1030300070D296490888113080B20880FDF79EF959
:10304000FDF7A8F8C0B25021FDF7B6F990482170FD
:10305000405C0128EDD08E48CCB207558D480178F0
:103060002046FDF7A9F948000B1829708A4861002D
:103070006218C55C894918188D54437851184B70F3
:10308000807888703078401C3070ECE00022067048
:1030900011461046FDF7F8FA032028702670804983
:1030A0003E707B4A0E7008781654401CC0B20870FF
:1030B0003228F8D3734854E0502854D27349088812
:1030C000113080B20880FDF759F9FDF763F8C0B2FE
:1030D0005021FDF771F96E482170405C0128EDD058
:1030E0006B4920780F5429786B4D4A0089184200AB
:1030F00082186B5C6948491983544B7810184370E7
:10310000897881705F480178491C01705D4802E050
:1031100028E02AE0A6E00078502823D35848614DE3
:103120000178614F491C01702670604C574908882E
:10313000113080B20880FDF721F9FDF72BF8C0B2FD
:103140001421FDF739F9504A1078295401212154EE
:103150003E54401CC0B210703228E7D35448067069
:1031600054480670F8BD4748CFE700204F4E207006
:10317000C0B2315C00290AD001291FD04200831857
:10318000464A0021D1549A185170917033E0297841
:103190004A008A18404994468B5C41003F4A4118D6
:1031A00053543D4B6246D218944653783B4A891893
:1031B0004B70624692788A7037541DE03A49394B19
:1031C0000A5C521CD2B20A541B5C9A4214D90022E7
:1031D0000A542E490888113080B20880FDF7CEF8D5
:1031E000FCF7D8FFC0B21421FDF7E6F82D4A20788D
:1031F0001154315C491C31542078401CC0B22070FD
:103200005028B5D32A480178491CC9B20170322927
:10321000A8D900241A4E047034702978264B48002F
:103220000A181D49885C18705218244B517819707F
:10323000234B92781A70FDF727FA2878401CC0B209
:103240002870052801D9022030701548104A0470F2
:1032500001785454491CC9B201703229F8D3094885
:103260000470F8BD317030785028FAD30449FF203B
:103270000870F8BD1900002016000020150000207D
:103280001E0000201A0000200C0000200400002076
:103290003C0100200A000020440000206E010020B4
:1032A0000B000020D800002074000020A6000020A1
:1032B0001B000020170000200E0000200F0000203F
:1032C00010000020F0B58448844902788DB0844F06
:1032D0000978844C0091012A5AD0834802788348A7
:1032E00001788348491C0378C9B25B1CD8B2844674
:1032F000501CC0B20390002A72D07E480078401C57
:10330000C0B208907C4803785E00581C9E193B466A
:10331000F318012A754AC0B211707DD00A2935D33D
:10332000002111707549BA5D0A70019274495A788A
:103330000A7003929A78734994460A7072494F2230
:103340000A700B461D7869006E1832191146203933
:103350004F7FA7558E7F5670C97F91706D1E2906CD
:10336000090E1970EED101992170039961706146BF
:10337000A1706049089A0A700C2A07D900220A70C5
:103380005D490870009B984200D30A700DB0F0BDF3
:10339000002101705C4801700646307800990546AE
:1033A000FDF70AF8544801704800091868007A5C73
:1033B00028182254C9194A780019427089788170F6
:1033C0006D1CE8B230705028E7D34B4900200870DC
:1033D000464908704449087045490870D6E7FFE738
:1033E000424814290170D1D300210170434822784A
:1033F000027006924248627802704248A5780570D1
:10340000414817460170CAB2510053181919CE78B5
:10341000E6540B794B7000E01AE04B798B70521C2C
:10342000D1B201705029EED32E480699E030417395
:103430008773C5732E48614601701429A6D30021F5
:1034400001702948039A02702B480170294840E016
:103450000A299BD3002111702849BA5D0A7006928F
:1034600027495A780A70019226499A780A702649A3
:103470000A924F220A700B461D7869006E183219A5
:10348000114620394F7FA7558E7F5670C97F9170A6
:103490006D1E2906090E1970EED106992170019949
:1034A00061700A99A1701349089A0A70052A07D910
:1034B00000220A7010490870009B984200D30A70DD
:1034C0000B4861460170642988D3002101700648C9
:1034D000039901705AE70000190000200A0000203B
:1034E000440000206E0100201E0000201600002075
:1034F0001B0000201A000020150000200E000020F4
:103500000F000020100000200C000020F0B5CB4977
:10351000CB4A087889B001281ED010460278CA48E4
:10352000C8490078401CC5B2C8480378581CC4B2CA
:103530000878511C0090C8B2039058001F18C44866
:103540003E18002A13D0012A40D0022A5DD0032A57
:103550007ED00521BA4836E000200870BB490870CB
:10356000BC490870B84910700870BB497DE0BB4881
:1035700000210170B948032100780690FCF71CFF78
:1035800000290BD1B248C25D069841004118B448E9
:103590004254727808184270B17881700699AF4829
:1035A000491CC9B201705029E4D3A748142D0570F5
:1035B0000AD300210170A5480470009A944200D3F8
:1035C00001709F480399017009B0F0BDA348002124
:1035D0000170A248032100780690FCF7EDFE012956
:1035E0000BD19B48C25D0698410041189C4842544B
:1035F000727808184270B178817006999748491C12
:10360000C9B201705029E4D3CFE79448002101707A
:103610009248032100780690FCF7CEFE02290BD1D8
:103620008B48C25D0698410041188D48425472781B
:1036300008184270B178817006998848491CC9B24F
:1036400001705029E4D38049142D0D70BCD300E0E3
:103650000DE0002008707D490C70009A944200D360
:1036600008707749039A0A707E490870ACE7794878
:103670000178491CC9B201700229A5D3002101704B
:103680007548774C00782178420003908018704A82
:103690008518002905D16178002902D1A178002977
:1036A00034D06B49085C1921FCF786FE6E4908701E
:1036B000059068781921FCF77FFE6C490746087071
:1036C000A8781921FCF778FE6949644E08700290C9
:1036D00000203070C0B203210490FCF76DFE002979
:1036E0000ED1049841004018225C0599511A2154CA
:1036F00000194178C91B417082780299511A817072
:103700000498401CC0B230705028E3D3554800786C
:1037100004900F283CD3E078002805D120790028B8
:1037200002D16079002833D0E8781921FCF744FEF3
:103730004D490870079028791921FCF73DFE4B4947
:103740000746087068791921FCF736FE4849434E50
:103750000870059000203070C0B203210290FCF781
:103760002BFE01290ED1029841004018225C0799D6
:10377000511A215400194178C91B4170827805996A
:10378000511A81700298401CC0B230705028E3D3A7
:1037900004981E283AD3A079002805D1E0790028A2
:1037A00002D1207A002839D0A8791921FCF704FE2B
:1037B0002D4908700290E8791921FCF7FDFD2B498D
:1037C00008700190287A1921FCF7F6FD2849074670
:1037D0000870224D00202870C0B203210646FCF775
:1037E000EBFD02290DD170003018225C0299511AAC
:1037F0002154001942780199511A41708178C91BEE
:103800008170761CF0B228705028E5D304981F28E8
:1038100000D3D9E613480178491CD4E608490020B2
:103820000870039A0C4BD21CD2B21A70092A01D329
:1038300004220A700B490870ECE700001900002010
:103840001E0000200A0000201B00002015000020A0
:103850004400002016000020A60000200C000020DC
:103860006E0100201A00002012000020130000202A
:1038700014000020F0B5FA48FA4D01780024FA4E01
:1038800085B001292AD030460778F848002F007803
:103890000390F74800780290F64800780190F648C7
:1038A0000378F6480178F64802783ED02846067834
:1038B000701CC0B28446EC480078401CC0B2009036
:1038C000F048012F007804907ED0022F7DD0032F86
:1038D0007CD0E5490420087005B0F0BD00220470DA
:1038E00011461046FCF7D0FEE64819210470E64860
:1038F00004703470E5482C700470DC480470DC48B7
:103900000470DC480470E24C2078FCF755FDDA497D
:10391000087060781921FCF74FFDD8490870A0782D
:103920001921FCF749FDD649D5E70398CF4EC018B9
:10393000C0B23070029ECE4B7118C9B21970019E90
:10394000CC4BB218D2B21A70FCF79EFE2878401CFD
:10395000C0B228701928BFD3C348CD4E0178491C86
:103960000170C848007841004718F05D1921FCF744
:1039700023FDC149BE19087070781921FCF71CFDA0
:10398000BE490870B0781921FCF716FDBC49C24E3B
:1039900008702C70BF4DC14F2C70C1482978445419
:1039A0003088113080B23080FCF7E8FCFCF7F2FB85
:1039B000C0B20A21FCF700FD28783954401CC0B27F
:1039C00028703228E9D387E701E083E0FEE0502E3B
:1039D00039D2B0480470AF48B14D00782D5C012D4C
:1039E0002AD0B04DAD4F2E5C761CF6B22E543F5C03
:1039F000BE420DD32C5445004619AB4DAF5DFF1AA6
:103A0000AF5575196E78761A6E70AE78B61AAE70BC
:103A100045004619A44DAF5D002F0DD175196E7884
:103A2000002E09D1AD78002D06D18E4E35786D1C53
:103A300035709B4E01253554401C964DC0B2287000
:103A40005028C8D302E0874861460170854D287828
:103A50005028B8D384480099017004998948491CBA
:103A6000C9B2924A01701278914200D30470007872
:103A7000874E41004718F05D1921FCF79DFC7E49F7
:103A8000BE19087070781921FCF796FC7B49087004
:103A9000B0781921FCF790FC79497F4E08702C70A2
:103AA0007C4D7F4F2C7028783C543088113080B288
:103AB0003080FCF763FCFCF76DFBC0B20A21FCF719
:103AC0007BFC764A28781154401CC0B228703228FA
:103AD000E9D301E76B480078450040196C4D02902E
:103AE00040190190502E43D26A48047069486C4DC9
:103AF00000782D5C012D34D06A4F684D3E5C761CF9
:103B0000F6B23E542D5CAE420DD33C544500664F98
:103B100045197E5DF6187E55ED196E7876186E7033
:103B2000AE78B618AE70450046195F4DB446AF5D2D
:103B3000574D029EAD5DAF4213D15B4D664677197E
:103B4000019D7E786D78AE420BD1019DBE78AD7837
:103B5000AE4206D1434D2E78761C2E70504E012574
:103B60003554401C4B4DC0B228705028BED302E0E3
:103B70003C48614601703B4800785028A9D33A4838
:103B80000099017042480299475C19213846FCF7B8
:103B900013FC0146384801700198192146783046D7
:103BA000FCF70AFC354908700198192185782846E8
:103BB000FCF702FC0146324801702A4804702B4889
:103BC00007702B4806702B48057085E60398274E32
:103BD000C01AC0B23070029B254E591AC9B231705A
:103BE000019B244F9A1AD2B23A70FCF74DFD287807
:103BF000401CC0B228701928E7D32C701B481A4DFE
:103C0000047034703C701F482C700178274A491C9E
:103C1000C9B201701278914200D3047000781C4C34
:103C200041004618A05D1921FCF7C6FB1249341962
:103C3000087060781921FCF7BFFB10490870A07864
:103C40001921FCF7B9FB0E49087010480178491C8E
:103C5000C9B201700229B8D3042028703CE60000E4
:103C6000190000201A0000201E0000200E00002075
:103C70000F00002010000020120000201300002080
:103C8000140000201500002016000020170000205E
:103C9000440000200C00002004000020D800002078
:103CA0003C010020740000206E0100200A0000206A
:103CB000F8B5434800270178424C434D434E012953
:103CC00010D10022077011461046FCF7DDFC404879
:103CD00007704048077040480770404807702770D9
:103CE0002F7037703B480178491CC9B20170032915
:103CF00064D9077039480178491CC9B20170282974
:103D000008D9077034480178491CC9B201700529E7
:103D100000D9077030480078030001F03FFB06042B
:103D20000B121921293037702078401D2070287817
:103D3000C01F13E02F703078801F3070207809305A
:103D400014E027702878C01D28703078001F15E017
:103D500037702078401F20702878083028700EE0D7
:103D60002F703078C01C30702078C01F207006E0A3
:103D700027702878083828703078C01C30701848B0
:103D80004F2101701748164909784A008B188C4654
:103D90001A18114620398F7F57704F7FC754C97F3B
:103DA00091706146491E09060D4A090E1170EAD14B
:103DB000217801702978417031788170F8BD000058
:103DC000190000200E0000200F000020100000202D
:103DD00015000020160000201E0000201700002003
:103DE0000C0000206E01002070B526490025CB781C
:103DF000254A2648012B0CD001880123491C89B291
:103E0000234C018001290DD0224EB1420CD11370F8
:103E100019E0CD7005801570002211461046FCF7A0
:103E200033FC70BD15700EE01B4EB14201D1022073
:103E300008E01A4EB14201D1032003E0184EB1420E
:103E400003D104201070237004E07D239B0199426C
:103E500000D105801078030001F0A0FA0505080BD9
:103E60000E110400DDE700F01DF870BD00F0BAF996
:103E700070BD00F081FC70BD00F030FD70BD00F041
:103E80004DFE70BD06000020180000201C00002020
:103E900019000020640A0000E61400004416000027
:103EA000CD190000F0B5C048C04D01788BB0012994
:103EB00027D028460778C04DBE4829780078491C8D
:103EC000CEB2401CC1B2781CC0B20390BB48B84C03
:103ED00002781346521CD0B222780092B84AB94CEC
:103EE00012780992521CD2B204925A009A18B64B18
:103EF0000592D2183B0001F051FA05184F8ECDFE05
:103F0000FD0000240470224621462046FCF7BCFB3D
:103F1000AA482C700470AA480470AC480470AC48DD
:103F20000470A44804700BB0F0BD2E70052EFAD3B7
:103F300000232B70A74C4F232370A24BE03BA54CD2
:103F4000247865006619A446F5182C46203C677F46
:103F50009F55A67F6E70E47FAC706446641E240695
:103F60009C4D240E2C70EAD1974D059E934CAD5D6F
:103F70001D7055785D7092789A708E4A5029117034
:103F8000D1D300211170894A039B13702070009ACD
:103F90009042C8D32170C6E72E70052EC3D30023EC
:103FA0002B708C4E874D3370E03D8A4B1B785E0042
:103FB0009C469E197319DF78AF551E795E705E7945
:103FC0009E7063465B1CDBB2824E4F2B3370ECD38A
:103FD0007D4D059E794BAD5D65735578A5739278DF
:103FE000E273744A502911709DD30021117018702A
:103FF000009A904200D319706C4A7448117003788B
:104000005B1CDBB20370022B8DD901700220107093
:104010006B48017087E72E70052E84D300232B7028
:104020006C4B4F241C706B4B664D1B78E03D5C0065
:104030001E199C4674192346203B5F7FAF559D7F18
:104040006570DB7FA37063465B1E1B06614C1B0E15
:104050002370E8D15C4C059D584B655D594CE03CA4
:104060002570557865709278A270554A049C14703A
:10407000062C06D3002414701870009A904200D3C6
:104080001C704C485029017085D3002101704748AD
:104090000399BEE72E70052EBCD300262E704D4B23
:1040A000484D1E70E03D4B4B1B785E009C469E19B0
:1040B0007319DF78AF551E795E705E799E70634626
:1040C0005B1CDBB2434E4F2B3370ECD33E4D059E51
:1040D0003A4BAD5D65735578A5739278E273384AB3
:1040E000049C1470062C09D3002414701870009DD1
:1040F000A84201E054E020E000D31C702D4B502971
:10410000197087D300201870284902230B70304B98
:104110001C78641CE4B21C70022C00D803E7042352
:104120000B702D492D4C08700B78E0545B1CDBB2F2
:104130000B70322BF8D31070F5E62E70052EEDD3F0
:1041400000262E7009981E4C502827D2214D234F4F
:1041500023490888113080B20880FCF70FF9FCF77A
:1041600019F8C0B25021FCF727F92970785C0128B2
:10417000EED0287801213954410041181148E03827
:1041800046540818467086702078401C2070C0B2D3
:104190005028C3D305480178491C3AE70498F5E74D
:1041A000FF21024835E70000190000201E00002012
:1041B0000A0000201B00002016000020150000202F
:1041C0001A0000204E02002044000020A60000201B
:1041D000170000200C0000200B0000203C010020F4
:1041E00004000020F0B5FF48FF4D017800248DB099
:1041F000012932D02F78FD4807970178FC48FF4B02
:104200000278FC481B780678FB48D2180078D2B2B6
:104210000492FB4A089312780692B218D2B2039223
:10422000F84A491C1678C9B28019C2B2F64800781B
:10423000431CDBB20093F54B1B780A915B1CDBB28D
:104240000293F3493B000978019101F0A7F809288E
:104250004878F8F6F5F4F4F4F300002204701146FF
:104260001046FCF711FAE9482C700470E94819214E
:104270000470DE480470E84C2078FCF79DF8DF49B4
:10428000087060781921FCF797F8DD490870A0786C
:104290001921FCF791F8DB4908700DB0F0BD0898C2
:1042A000D54B81004018D249C0B2087006998A00E7
:1042B0008918D04AC9B21170B200B218D2B21A70BD
:1042C000FCF7E2F9D3480178491CC9B201700A2908
:1042D000E3D904702878401C2870CB483DE1C449DC
:1042E00004980870C34B03991970C34B1A70FCF7FC
:1042F000CBF9C5480178491CC9B201701429CCD347
:1043000004702878C64E401C2870C44DC54F2C70D0
:10431000C548297844543088113080B23080FCF789
:104320002DF8FBF737FFC0B20A21FCF745F82878D3
:104330003954401CC0B228703228E9D3ADE7502868
:104340003BD2B6490C70B84A0878125C012A2ED0CC
:10435000B64AB44F135C5B1CDBB213543F5CBB42E8
:1043600011D314544200B24B82189F5C089BFB1A75
:10437000AF4FBB543B46D2185778069BFB1A53707D
:1043800093789B1B937042008318A94AD75C002F37
:104390000DD19B185A78002A09D19A78002A06D1A3
:1043A000994A13785B1C13709F4B01221A54401CCE
:1043B000C0B208705028C6D302E09348009901703B
:1043C000914800785028B9D392482C7004708F48D7
:1043D00002990170019A914200D3047001788E4EC7
:1043E00048000F18F05D1921FBF7E6FF8349BE195D
:1043F000087070781921FBF7DFFF81490870B078E9
:104400001921FBF7D9FF7F4908707F48047077486E
:104410000A990170022991D90470032028708548F7
:10442000814A047001785454491CC9B20170322980
:10443000F8D332E790E19BE091E066E0FFE7724E4F
:10444000502860D27C4F76490888113080B20880AD
:10445000FBF794FFFBF79EFEC0B25021FBF7ACFFC9
:1044600071483970405C0128EDD0CAB26E49012014
:1044700088543078401C30705B48674D0178491C87
:1044800001705A4804705A4804705A4804705A48D7
:1044900004705E48007841004718E85D1921FBF779
:1044A0008BFF56497D19087068781921FBF784FF46
:1044B00053490870A8781921FBF77EFF514908700D
:1044C00030785028B5D34849052008703470534DD2
:1044D000534E544F2C70544829784454308811302E
:1044E00080B23080FBF74AFFFBF754FEC0B21421C4
:1044F000FBF762FF28780A313954401CC0B228709B
:104500003228E8D3C9E60098B5E73949049B0B7017
:104510003849039B0B70384950280A7010D8464818
:10452000089B0078410041184148425CD21842542F
:10453000081842780699511841708178891981705C
:104540002A490A9808701928DCD3032028702F48BC
:1045500002990170019A9142D4D304709DE6002221
:1045600011461046FCF790F828786FE0287094E622
:104570002A4E00203070C4B2E0072C48015D67D09D
:10458000491CC9B2274A0155125D914222D9002720
:10459000075520460199FBF70FFF1C48017026487C
:1045A000025D002A7ED04A008A181B4994468B5C23
:1045B000610061181E4A8E465354174962465218CC
:1045C000944653781A4A714689184B70624692781D
:1045D0008A700755641CE0B230705028CBD30D4868
:1045E00001782BE0190000201E0000201700002099
:1045F0000E0000200F0000201000002012000020FC
:1046000013000020140000201A00002015000020D4
:104610000A00002016000020440000200C000020AA
:1046200004000020D80000203C010020740000207D
:104630006E0100200B000020A6000020491CC9B21A
:104640000170C8298AD9002101700798401C8DE7A4
:10465000491CC9B201550329BCD30021015520468C
:104660000199FBF7A9FE3D48017048000F183C482E
:104670001921C05D0390FBF79FFE3A490870029034
:10468000374819213F1878780690FBF795FE364990
:1046900008700890B87819210590FBF78DFE334912
:1046A000087000E042E03249095D00291FD0610036
:1046B000304A6118525C039B9A420BD32D4BCB18A6
:1046C0009C465F78069B9F4204D363469B78059F78
:1046D000BB4227D2029F274BD2195A54C9184B7894
:1046E000089A9A184A708A781018887072E76100E0
:1046F000204A6118535C002B06D18F187A78002A63
:1047000002D1BA78002A0BD0029F1A4ADB1B5354FD
:1047100089184B78089A9A1A4A708A78101AE4E72E
:10472000134816E012490020085553E74A008F1835
:104730000B49104AC95D4B08610061185354084A7F
:104740000C4BBF187A78C91852084A70BA785208C8
:104750008A70012101553DE7FF2007E71500002081
:10476000440000201200002013000020140000204C
:10477000A60000206E010020F8B54B494B4C08788C
:104780004B4D4C4E01280DD04B48277802782846D7
:104790000178304600783B0000F000FE061D575FB0
:1047A00067737B8300200870444920700870FF21E4
:1047B00031704149287008704149434B08704149A4
:1047C00008700A789854521CD2B20A70322AF8D370
:1047D0003E490870F8BD39480178491CC9B20170DA
:1047E0000529F7D30021394F01703878502823D29A
:1047F00037490888113080B20880FBF7BFFDFBF70E
:10480000C9FCC0B25021FBF7D7FD324801702E48D9
:10481000405C0128ECD02F482B49007801220A5433
:10482000410040182C4932780A5440182A7822490D
:104830004270097881703878401C3870C0B25028B6
:10484000C8D32078401C2070F8BDFF2901D20F3159
:104850001AE002211BE0297810E0002801D00F386F
:104860001AE003201BE0307808E0134BFF2A02D245
:104870000F321A7001E0042222701A78FBF704FF4D
:10488000F8BD002902D00F392970E4E70521217015
:10489000E1E7FF2802D20F303070E4E706202070F5
:1048A000E1E7FF20CFE70000190000201E000020F4
:1048B0000F0000200E000020100000201600002035
:1048C000170000200B0000203C0100201A000020EF
:1048D000040000200C0000206E010020F0B57F498C
:1048E0007F4C087889B001281CD07E482178007858
:1048F000401CC0B205907C4802787C481346521C8C
:10490000D7B2007800905A00481C9E18C0B2794A6D
:1049100003907748B5180B0000F040FD050F3C5A96
:1049200078AADE00002008706F4920700870724974
:1049300008706C49087009B0F0BD002101706C4826
:10494000032100780690FBF737FD00290BD1694859
:10495000825D069841004118684842546A780818F8
:104960004270A978817006986149401CC0B20870F5
:104970005028E4D35B48059901703229DBD300212C
:10498000017059480770009A974200D3017003984C
:104990002070D0E70021017055480321007806906F
:1049A000FBF70AFD01290BD15248825D06984100B0
:1049B0004118524842546A7808184270A9788170A8
:1049C00006984B49401CC0B208705028E4D3D1E788
:1049D000002101704648032100780690FBF7ECFCAB
:1049E00002290BD14348825D069841004118434893
:1049F00042546A7808184270A978817006983C4938
:104A0000401CC0B208705028E4D3B3E7394F3C498A
:104A1000B85D08703B4A697811703B4BAA781A70F0
:104A2000FBF732FE2F480178491CC9B201703229C8
:104A300081D3002505702C48007841004618B85DE8
:104A40001921FBF7B9FC3149F61908707078192162
:104A5000FBF7B2FC2E490870B0781921FBF7ACFCCB
:104A60002C4908702078401C20702B48057062E7A4
:104A7000234926480A780078101AC0B20870214AE3
:104A8000234913780978591AC9B211701E4B214A6B
:104A90001D781278AA1AD2B21A70FBF7F5FD1E49DA
:104AA0000878401CC0B208701928E0D300200870B4
:104AB0000D4920700A780D4B521CD2B20A701B7837
:104AC0009A4200D308700C480178491CC9B20170A1
:104AD0000329CCD905205BE7FF2059E71900002006
:104AE0001E00002017000020150000200A000020F2
:104AF0000C00002044000020160000206E01002061
:104B00000E0000200F0000201000002012000020E6
:104B100013000020140000201A000020F8B59E4A5F
:104B2000FF2316789D4D9E4900209E4C012E0DD0EE
:104B30000A4612782F78521C0126D2B2002F1DD0BF
:104B4000012F61D0022F7DD02B70F8BD1070964AD6
:104B50002870107008709549087095490B70954938
:104B6000087095490870954908700A78A054521C3D
:104B7000D2B20A70322AF8D3914943E00A70052A6A
:104B8000E3D300208E4F08703878502822D28D4908
:104B90000888113080B20880FBF7F0FBFBF7FAFAC7
:104BA000C0B25021FBF708FC87480170605C012807
:104BB000EDD085487E49007826540A784100411896
:104BC000824842547B4A081812787B49427009781F
:104BD00081703878401C3870C0B25028B5D328781E
:104BE0007B49401C287070480670002008704E7089
:104BF000724908700A78A054521CD2B20A70082A6E
:104C0000F8D36A490870F8BD0A70052AFBD300275B
:104C10006F480F700078664B410042186D49885C00
:104C200018705318634A597811709A78624B1A7049
:104C3000FBF72AFD644839460770C9B2625C502A06
:104C400017D200E057E0624B5B785F00DB19614FE1
:104C50009C46FB5C5700D2195C4FBB545D4F6346CA
:104C6000DB195A4F9C465B78D219537063469B7888
:104C70009370491CC9B201700829DED32178491C00
:104C8000C9B22170502901D9512121700721017029
:104C9000C9B26218203AD27F6254491E0906090E31
:104CA0000170F5D1E1795029ADD949494A4B4A788B
:104CB000521CD2B24A701F78BA4200D34E70002202
:104CC0000378E2545B1CDBB20370082BF8D337483F
:104CD00003785B1CDBB20370032B94D3027028783B
:104CE000401C287048780870401CC0B24870B84218
:104CF00089D34E70F8BD0A70052AFBD300220A70D2
:104D00003148334902704A78264B01785C5C502C5C
:104D100011D25300D3182F4F9C46FF5C6300E41858
:104D20002A4B1F552B4FE3186744BC467F785F70B2
:104D30006746BC789C70491CC9B201700829E3D34E
:104D400018490B785B1CDBB20B70502B01D9512337
:104D50000B7007230370DBB2CC18203CE47FCC54EB
:104D60005B1E1B061B0E0370F5D1CB79502BC1D9EE
:104D7000174B521CD2B2184C5A702478A24200D35E
:104D80005E7000220378CA545B1CDBB20370082BF0
:104D9000F8D32E70F8BD0000190000201E0000207E
:104DA000160000203C010020150000201700002004
:104DB0000E0000200F000020100000200B0000203B
:104DC0001A000020040000200C0000206E010020CA
:104DD0000A010020440000200A000020F8B56149C3
:104DE000614CC878012806D06048017802294AD26F
:104DF000491C0170F8BD0020C87020705C485D4EF1
:104E000000785D4F0090207800990546FBF7D4FAB2
:104E10005A480170480008186900325C69187A54D1
:104E200080194278C9194A70807888706D1CE8B280
:104E300020705028E7D30026514F524D2670288805
:104E4000411C2980FBF79AFAFBF7A4F9C0B20A21AA
:104E5000FBF7B2FA207839542888411C2980FBF7E7
:104E60008DFAFBF797F9C0B21421FBF7A5FA464A71
:104E700020780A311154401CC0B220705028DED373
:104E80003A480670F8BD002101703D4D3E4E21703C
:104E90002078295C491CC9B22954325C91424BD913
:104EA0000021295441004218334F3849BB5C0B7034
:104EB0000093D1194F78364BBE461F70354F8B7813
:104EC0003B70354F9C463F5C002F3CD02D482D4910
:104ED0000088113080B20880FBF750FAFBF75AF9CE
:104EE0002349C0B20978FBF767FA244801704800EB
:104EF0000B1820482778C25C780039181E484254A5
:104F00001C481B181C485A78081842709978817000
:104F100021490020C8551B481A490088113080B229
:104F20000880FBF72BFAFBF735F9C0B20F21FBF72E
:104F300043FA2078491D31542078401CC0B22070BB
:104F40005028A5D3F8BD009F7B080B4FBB54724679
:104F500052084A70624652088A700F4901220A5468
:104F6000EAE70000060000200C00002016000020E8
:104F70000A000020440000206E01002015000020DF
:104F80007400002004000020D80000200E00002043
:104F90000F00002010000020A6000020F8B51349E3
:104FA000C878012820D10020114CC8702070114809
:104FB000114E124F00780090207800990546FBF7BB
:104FC000FBF90F480170480008186900325C691845
:104FD0007A5480194278C9194A70807888706D1C9B
:104FE000E8B220705028E7D3F8BD0000060000208A
:104FF0000C0000200A000020440000206E01002068
:1050000015000020F8B520A00068204E0090316AFD
:1050100030131F4C1F4F014201D0002016E008033F
:1050200001D5204600E038468A030FD40A04920FC7
:105030006B469B5CCA058904D20DC90E891C800889
:10504000921C59435043FBF7B7F98000124D28607A
:1050500031694907490F12D0022902D0032910D023
:105060002046B1690907090F491CFBF7A5F90B494F
:1050700068604A108018FBF79FF9A860F8BD3846B1
:10508000EFE70748EDE700000102020400020050CC
:1050900000805101001BB7003800002040420F0083
:1050A000102700000F4A10499042486901D1000AB8
:1050B00000E0000B4007400F06D001280ED0022868
:1050C0000ED00A480068704708688007800F0128E2
:1050D00002D00120C003704705487047054870475B
:1050E0000548EFE7000001400002005034000020B6
:1050F000001BB700102700003C000020F8B5134645
:105100000F460646FFF7CEFF0446002540089842AA
:1051100001D2022010E0012149068C4202D303256E
:10512000A40805E0012109068C4201D301250446AB
:1051300019462046FBF740F92F43376070606D1C1D
:10514000684301462046FBF737F9F8BD0A490B4A88
:10515000002013680B7093695B0404D4401CC0B238
:10516000491C0F28F5D30F2803D0012004490870EB
:1051700070470020FAE700005E02002000000540B2
:105180002E00002070B51B4E0D46044671690020AC
:1051900089010322890F2063E260A06000291FD0EB
:1051A00001291FD0022901D313480068B1690905FC
:1051B000090F491CFBF700F90646002D19D06808B5
:1051C00080192946FBF7F8F80C49801E88420CD953
:1051D000E80080192946FBF7EFF80009801E07E078
:1051E0000748E3E7FBF7B0FCE0E7032109070843C2
:1051F000606270BD0002005034000020FFFF00001C
:10520000001BB700026A120A12020A4302624168D6
:105210000122D2021143416070470000F8B53148C5
:105220000178002939D0002101702F4801785529D3
:1052300033D142782E4F303A2C4E012439782D4DFF
:105240000079130000F0AAF806040608192A442978
:10525000002044E0787842E000291ED00A2903D9D2
:10526000A9783970797003E0082901D93C707C7005
:10527000B8706870FBF710FE0DE000290DD00A2908
:1052800003D96878B870FBF707FE17480079401C0F
:1052900038707870A870FC703470F8BD0029FCD0AC
:1052A00015490888C73080B20880FBF767F8FAF71D
:1052B00071FFC0B20321FBF77FF80B3139700A4848
:1052C00079700079B870FC703470FBF7E5FDF8BDBB
:1052D0000029FCD0094988714C713470FB2038706A
:1052E000FC70F8BD2E0000205E0200201F00002090
:1052F00006000020000000200400002026000020FE
:1053000008B5064900200A686B461A708A6952047B
:1053100003D4401CC0B20F28F5D308BD00000540DF
:10532000F8B5FCF7EDF8194B0A221F781C20184934
:10533000184E194D0124AA2F0BD04A7088700627E9
:10534000AF71AA251D7034700A70CC70FBF7A4FDF4
:10535000F8BD4B78002B01D00D2B01D94A70347069
:105360004A780A70CC708A781C2A01D98870347007
:105370008878FBF791FDA879082801D8C00702D0EA
:105380000020A87134706C71EC71F8BD0000002031
:10539000060000201F0000202600002030B47446C4
:1053A000641E2578641CAB4200D21D46635D5B0021
:1053B000E31830BC184730380A2801D20120704762
:1053C000002070470020C043704700B50346FDF73A
:1053D000D5F8184600BD0000194D28680126410780
:1053E00018480027002901DA067000E00770FCF772
:1053F0000FFDFFF795FFFFF783FF134C13488168FC
:10540000C907C90FFAD0866059201621882220606A
:10541000216022602368002BF9D02868C007C00FE4
:1054200028602760FCF7F4FBFCF710F8FCF712FC8F
:10543000FCF76CFCFBF7A8FFFCF7A4F8DEE7000024
:105440000040004003000020000100500000014027
:1054500010B50446016810A0FAF7CEFE11A06168ED
:10546000FAF7CAFE12A0A168FAF7C6FE13A0E16817
:10547000FAF7C2FE14A02169FAF7BEFE15A0616911
:10548000FAF7BAFE16A0A169FAF7B6FE17A0E1690D
:10549000FAF7B2FE10BD0000723020203D203078B7
:1054A00025780A00723120203D20307825780A00C6
:1054B000723220203D20307825780A007233202077
:1054C0003D20307825780A00723132203D20307836
:1054D00025780A006C7220203D20307825780A005B
:1054E000706320203D20307825780A007073722088
:1054F0003D20307825780A00FA000000FA0000000C
:10550000FAFA3200FA326400FA32FA9600FA0032FD
:1055100064C800FA00FA00FAFAFAFA006400FAC85D
:10552000FAC896FAFAFAFA320096003200FA3031E6
:1055300032333435363738394142434445464030BA
:10554000580030313233343536373839616263646C
:1055500065664030780000007855000000000020AB
:105560004400000004010000BC550000440000207D
:105570007405000020010000000000000000000091
:10558000000000000000000000000000000000001B
:10559000000000000000000000000000000000000B
:1055A0000000000000000000000000000080510129
:0C55B0000080510100000000000000001D
:04000005000001CD29
:00000001FF
